:0400000080312428FF
:100008007E14803120007F08F1000B1F1528210085
:10001800101E15282000101E15288231F522803167
:100028001F280B1F1F282100901E1F282000901E2C
:100038001F2883312F2371082000FF007E1009003C
:10004800803126287D30840083308500C4308600C6
:100058000030870016308331DB238031FA01FB0141
:10006800EF01A03084000030850024308331E12383
:100078008031203084000130850040308331E12315
:100088008031A03084000130850040308331E12385
:100098007E1020008231B32AA0308600013087000C
:1000A80026308400003085004030F90016001A0020
:1000B800F90B5A28CD30860000308700663084005E
:1000C800003085000930F90016001A00F90B68287D
:1000D800C430860000308700DA30840000308500A4
:1000E8000930F90016001A00F90B76282100590882
:1000F800E6005808E5005708E4005608E300833195
:10010800652380314030F7000030F8002630803118
:10011800E420803178082100E8007708E700E8301B
:10012800F2000330F30082318D2280316630813154
:10013800E82180314030F7000030F8002630803167
:10014800E420803178082100E8007708E700DA30F9
:1001580082311F2280314030F7000030F80026300D
:100168008031E420803178082100E8007708E70032
:10017800E3308231562280314030F7000030F800F9
:1001880026308031E420803178082100E8007708A3
:10019800E7008331932380314030F7000030F800C6
:1001A80026308031E420803178082100E800770883
:1001B800E700E830F2000330F30082318D220800B6
:1001C8002000A400A501A201A3010530F20000301F
:1001D800F30082318D22803101302000A2070030E7
:1001E800A33D0A3022062304031DFF28FF30F70031
:1001F800FF30F80008007A08031D4629E9288331F2
:10020800132380312000A00025082407A10021081D
:1002180086008701200881000130A0002008A5077A
:100228002508A000A10178082106031D1D297708CB
:10023800200603192D2935298331132380317A08A3
:10024800031D2D290530F2000030F30082318D2284
:1002580080317A08031D2029FE30F700FF30F800AE
:1002680008000130F2000030F30082318D22803125
:100278007A08031D46290430F2000030F300823169
:100288008D2280317A08031D032920002308F800F5
:100298002208F700080053308231D42281315530CA
:1002A8008231D422813157308231D42281312C30AD
:1002B8008231D422813132308231D42281314130AD
:1002C8008231D422813131308231D42281313930A6
:1002D8008231D42281312C308231D4228131F9010A
:1002E8007508F7007408F60079087607840077081F
:1002F8000318770A850012000319A4297508F70066
:100308007408F60079087607840077080318770AD6
:100318008500120003199F297508F7007408F60074
:1003280079087607840077080318770A850000089B
:100338008231D42281310130F6007608F907742918
:100348000D308231D42281310A308231D422080022
:1003580022008C018D0102308E00173021008C00A4
:1003680070308D00FF308E00CD3023008E00D030ED
:100378008D0017308C00F03024008D003F308C0049
:10038800FF308E002100951325008C018D018E0110
:1003980000308B1B0130F2008B1355303C008F006E
:1003A800AA308F000F100D30A40012303D009F00BE
:1003B80055303C008F00AA308F000F14721CE629BC
:1003C8008B1708008B130800F50053308231D422B4
:1003D800813153308231D42281312C308231D42280
:1003E8008131F60176087507F400740886008701E4
:1003F80001080319172A76087507F400740886009F
:10040800870101080319122A76087507F400740891
:100418008600870101088231D42281310130F4003D
:100428007408F607F6290D308231D42281310A305A
:100438008231D4220800F50053308231D42282312F
:1004480052308231D42282312C308231D42282310E
:10045800F60176087507F40074088600870101081C
:1004680003194E2A76087507F40074088600870178
:1004780001080319492A76087507F40074088600EC
:10048800870101088231D42282310130F4007408D6
:10049800F6072D2A0D308231D42282310A3082317A
:1004A800D4220800F50053308231D42282312D3015
:1004B8008231D42282312C308231D4228231F60129
:1004C80076087507F4007408860087010108031987
:1004D800852A76087507F4007408860087010108E4
:1004E8000319802A76087507F400740886008701C6
:1004F80001088231D42282310130F4007408F607F1
:10050800642A0D308231D42282310A308231D422D9
:1005180008008331F22382318331D22382312000D3
:100528001010F501F6017608803AF4007308803A55
:100538007402031DA12A720875020318B02A20004C
:10054800101CA32A8331D2238231200010100130DD
:10055800F5070030F63D972A8331EF2308008331F1
:10056800BA2382318B170B178031502082318331A7
:10057800C623823120000E1AD12A22008C16EC30B4
:10058800F4008330F50081314F218231E830F200E8
:100598000330F30082318D22823122008C12BE2A70
:1005A800F30021006B080319D52A101ADF2A7308F3
:1005B80023009A00F22A10127308F2007B08A03E6A
:1005C80086008701720881000130F2007208FB077B
:1005D80020307B020318FB010130EB0221001016CA
:1005E8000800203021006B020318112B20006F082F
:1005F800A03E86008701010823009A000130F00020
:1006080070082000EF0720306F020318EF01013057
:10061800F00070082100EB07080010120800F30131
:100628007A080319142B21004208203E8600013065
:1006380087000108F2007208F3000130F200720826
:10064800C207403042020318C20190120130FA0278
:1006580090167308080023009D1C342B1D121D16CC
:100668001908F00021004308203E86000130870069
:10067800700881000130F0007008C3074030430261
:100688000318C3010130F0007008FA0708002100C0
:1006980090121012083023009F0090309D002430E3
:1006A8009E0008309B009C01FB012000EF012030D8
:1006B800F20072082100EB00C301C201FA01901692
:1006C800080053308231D422833146308231D4221B
:1006D80083312C308231D422833131308231D4229B
:1006E80083310D308231D42283310A308231D422D1
:1006F800080032343034303430343034303430342C
:1007080030340034343430343034303430343034ED
:1007180030343034003433346434343400345230B8
:100728008231D42283312C308231D422833131304A
:100738008231D42283310D308231D42283310A3080
:100748008231D4220800200098019901FC309700DA
:100758001830960017082100EA002000160821002A
:10076800E900200010108331F22308008131AC2108
:1007780083318331E72383318331A7238331833165
:100788004B23080041308231D42283310D3082312D
:10079800D42283310A308231D422080021006A0829
:1007A8002000970021006908200096000800FE003C
:1007B80012001E00FE0BDC2B0034640080010131A6
:1007C800890BE22B00346830210099009801080059
:1007D8003034313400342000181008002000181478
:0207E800080007
:020000040001F9
:06000E00FC3FFF3F9F3F95
:00000001FF
